:1000000000200010150100008D0100008D0100008E
:1000100000000000000000000000000000000000E0
:100020000000000000000000000000008D01000042
:1000300000000000000000008D0100008D010000A4
:100040008D0100008D0100008D01000039090000C4
:100050008D0100008D0100008D0100008D01000068
:100060008D010000DD0400008D0100008D01000005
:100070008D0100008D0100008D0100008D01000048
:100080008D0100008D0100008D0100008D01000038
:100090008D0100008D0100008D0100008D01000028
:1000A0008D0100008D0100008D0100008D01000018
:1000B0008D0100008D0100008D0100008D01000008
:1000C00080B500AF0D4B1A680C4B80218A431A6033
:1000D0000B4B00221A600B4B01221A600A4B0422C0
:1000E0001A60084B01221A60084B03221A60084B61
:1000F00001221A60C046BD4680BDC0463882044019
:1001000040800440448004400880044070800440E3
:100110007480044080B584B000AFFFF7D1FF164B68
:10012000FB60164BBB60164A144BD31A7B6007E08A
:10013000FA68531CFB60BB68591CB96012781A70CE
:100140007B685A1E7A60002BF2D10E4BBB600E4AC0
:100150000C4BD31A7B6004E0BB685A1CBA600022C7
:100160001A707B685A1E7A60002BF5D100F0B0FA45
:10017000C046BD4604B080BDB90F000000000010AD
:1001800000000010000000102400001080B500AF37
:10019000FEE7C04680B500AF1A4B1A68194B8021A4
:1001A000C9010A431A60174B1A68164B80210902CD
:1001B0000A431A60134B1A68124B02210A431A6051
:1001C000104B1A680F4B10490A401A600D4B1A6801
:1001D0000C4B0E490A401A600A4B1A68094B0C492D
:1001E0000A401A60074B1A68064B0A490A401A600F
:1001F000044B1A68034B04218A431A60C046BD466B
:1002000080BDC046002000A0FFFF7FFFFFDFFFFF93
:10021000FFFEFFFFFFFDFFFF80B500AF2B4B1A680D
:100220002A4B04210A431A60294B1A68284B1202F0
:10023000120A1A60264B1A68254BE02109050A4369
:100240001A60244B1A68234B802149000A431A6024
:10025000214B1A68204B802149000A431A601F4B2A
:100260001A681E4B01210A431A601D4B1D4A1A6071
:100270001D4B1C4A1A601D4B01221A601C4BD022D8
:1002800012021A601B4B02221A601B4BA022D201E1
:100290001A601A4B01221A60194B02221A60194B7C
:1002A00003221A80094B1A68084B04218A431A60FA
:1002B000154B01221A60154B1A68144B80218900D6
:1002C0000A431A60C046BD4680BDC0460440005087
:1002D0001CC0004080800440048004400040005066
:1002E00000410050EE030000004200500043005067
:1002F00004430050084300500C4300500045005098
:100300000445005008400050F040005000E100E07B
:1003100080B582B000AF78600C4B1A680B4B04219B
:100320000A431A600A4B7A681A600A4B7A681A60A4
:10033000094B00221A60054B1A68044B04218A43BA
:100340001A60C046BD4602B080BDC04604400050A1
:1003500000410050004200504040005080B500AFC6
:100360000A4B0B4A1A600B4B00221A600A4B0522FB
:100370001A60C046084B1A6880235B021340F9D00C
:10038000054B00221A60C046BD4680BD14E000E067
:100390002F75000018E000E010E000E080B582B0AA
:1003A00000AF786001E0FFF7D9FF7B685A1E7A60E2
:1003B000002BF8D1C046C046BD4602B080BD80B516
:1003C00082B000AF094B1B687B60084B084A1A607B
:1003D000C046064B1A688023DB051340F9D1034B56
:1003E0007A681A60C046BD4602B080BD00C00140B8
:1003F0003B00004080B500AF134B1A68124B102130
:100400008A431A60114B1A68104B802149040A4331
:100410001A60FFF7D4FF0E4B1A680D4B52005208BA
:100420001A600C4B01221A600B4B1A680A4B0B49DD
:100430000A401A60084B1A68074B09490A401A60BB
:10044000C046BD4680BDC04638820440808004401E
:1004500008C0014000C00140C0C10040FFFFFEFFD6
:10046000FFFFBFFF80B582B000AF7860184B1A68FD
:10047000174B520052081A60154B1A68144B120B96
:1004800012031A60124B1A6801217B6899400B0015
:1004900019000F4B0A431A600D4B1A680C4B0D499B
:1004A0000A431A600A4B1A68094B8021C9040A439F
:1004B0001A60C046084B1B68002BFBDA064B1B6812
:1004C0001B091B051B0D1800BD4602B080BDC046B0
:1004D00008C001400000048010C0014080B500AF9A
:1004E000744B01221A60744B1B68062B00D9C7E0BD
:1004F0009A00724BD3181B689F46714B1B68632B85
:1005000010D8704B1B78DBB25A425341DAB26D4BB4
:100510001A706C4B1B78DBB25A425341DAB26A4B09
:100520001A70B6E0674B00221A70674B00221A70EF
:10053000AFE0634B1B68C72B10D8624B1B78DBB254
:100540005A425341DAB25F4B1A705E4B1B78DBB2F2
:100550005A425341DAB25C4B1A709AE0594B00226E
:100560001A70594B00221A7093E0554B1A68962363
:100570005B009A4210D2534B1B78DBB25A42534174
:10058000DAB2504B1A704F4B1B78DBB25A425341D0
:10059000DAB24D4B1A707CE04A4B00221A704A4B7B
:1005A00000221A7075E0464B1A68C8235B009A4215
:1005B00010D2444B1B78DBB25A425341DAB2414B62
:1005C0001A70404B1B78DBB25A425341DAB23E4BB1
:1005D0001A705EE03B4B00221A703B4B00221A70EF
:1005E00057E0374B1A68FA235B009A4210D2354B1A
:1005F0001B78DBB25A425341DAB2324B1A70314B9C
:100600001B78DBB25A425341DAB22F4B1A7040E0EA
:100610002C4B00221A702C4B00221A7039E0284B08
:100620001B682A4A934210D8264B1B78DBB25A42E9
:100630005341DAB2234B1A70224B1B78DBB25A4279
:100640005341DAB2204B1A7023E01E4B00221A707D
:100650001D4B00221A701CE01A4B1B78DBB25A4269
:100660005341DAB2174B1A70164B1B78DBB25A4261
:100670005341DAB2144B1A70114B00221A6008E091
:10068000104B00221A700F4B00221A700C4B0022E4
:100690001A600B4B1B685A1C094B1A60084B1A68EE
:1006A000C8239B009A4202D1054B00221A60C04623
:1006B000BD4680BDF440005004000010D00D000085
:1006C000000000100F0000A0010000A0890200003F
:1006D00080B584B000AF0F23FB1800221A70FFF71B
:1006E00059FDE1235B02180000F0AEF8FFF782FE2F
:1006F00062B6FA235B001800FFF750FE454B180066
:1007000000F0AEF9444B180000F0AAF9434B180072
:1007100000F0A6F9424B180000F0A2F9414B180076
:1007200000F09EF9404B180000F09AF90320FFF703
:1007300099FE0300BB60BB683C4A53433C49180028
:1007400000F05AFA03007B603A4B180000F088F979
:10075000BB6804221021180000F0FEF9364B180087
:1007600000F07EF97B683549180000F045FA030077
:1007700001220A21180000F0EFF92E2000F04EF9B6
:100780007B682E49180000F01DFB0B0004220A2193
:10079000180000F0E1F92A4B180000F061F9092077
:1007A000FFF760FE0300BB60BB68204A534320494B
:1007B000180000F021FA03007B60224B180000F0C3
:1007C0004FF9BB6804221021180000F0C5F91A4B3C
:1007D000180000F045F97B681849180000F00CFA81
:1007E000030001220A21180000F0B6F92E2000F0C3
:1007F00015F97B681149180000F0E4FA0B00042297
:100800000A21180000F0A8F90D4B180000F028F993
:100810008CE7C046EC0D0000F80D0000180E00003B
:10082000680E0000A00E0000180F0000E880000015
:10083000FF0F0000840F0000900F00001027000041
:10084000940F0000980F000080B582B000AF786070
:100850002B4B1A682A4B08218A431A60294B1A68C5
:10086000284B8021C9010A431A60254B1A68244B82
:1008700008210A431A60244B1A68234B08210A43B3
:100880001A60224B1A68214B01210A431A60204B3F
:100890001A681F4BFF218A431A601D4B1A681C4BB4
:1008A00004210A431A601A4B1A68194B19490A4065
:1008B0001A60174A164B12681A60174B01221A6009
:1008C000164B00221A60164B00221A607B681B012F
:1008D0001900144800F090F903001A00124B1A6036
:1008E000124B01221A60124B00221A60114B1A6837
:1008F000104B05210A431A60C046BD4602B080BDB8
:10090000048004408080044000E100E0C0C1004059
:1009100000C00040FF00FFFF94800440F0800440CE
:10092000F480044000879303204006400C400640BA
:10093000044006400040064080B582B000AF094B3D
:100940001B687B607B680122134007D0064B1B6845
:10095000DAB2064B1100180000F00AF8C046BD4696
:1009600002B080BD2440064014400640080000103C
:1009700080B582B000AF78600A00FB1C1A707B68FB
:100980009B680F2B14D872B67B689B685A1C7B68D7
:100990009A607B681B687A68D318FA1C12781A73FD
:1009A0007B681B6801330F221A407B681A6062B6AD
:1009B000C046BD4602B080BD80B584B000AF78604F
:1009C0000F217B1800221A707B689B68002B14D0C3
:1009D00072B67B689B685A1E7B689A607B685A680F
:1009E0007B1879688A18127B1A707B685B68013300
:1009F0000F221A407B685A6062B60F23FB181B78DF
:100A00001800BD4604B080BD80B500AF024B9B68A6
:100A10001800BD4680BDC0460800001080B584B0F7
:100A200000AF0200FB1D1A700A4BFB60C046FB685A
:100A30005A1EFA60002B04D0074B1B680422134097
:100A4000F5D0064BFA1D12781A60C046BD4604B0B8
:100A500080BDC046FFFF0000084006401C40064025
:100A600080B582B000AF786007E07B681B78180023
:100A7000FFF7D4FF7B6801337B607B681B78002B1A
:100A8000F3D1C046C046BD4602B080BD80B500AFC0
:100A9000034B1800FFF790FF03001800BD4680BD10
:100AA00008000010B0B584B000AF78603960002352
:100AB000FB600B23FB1800221A7020E00B257C1929
:100AC000FFF7E4FF030023707B191B78002BF5D0A0
:100AD0007B191B781800FFF7A1FF29007B181B78F2
:100AE0000A2B0CD07B181B780D2B08D0FB685A1CE6
:100AF000FA601A007B689B187A1812781A703B68A3
:100B0000013BFA689A4208DA0B22BB181B780A2BC1
:100B100003D0BB181B780D2BD0D1FB68002B04DD54
:100B2000FB687A68D31800221A70FB681800BD466B
:100B300004B0B0BD80B582B000AF78607B681800AB
:100B4000FFF78EFF034B1800FFF78AFFC046BD4634
:100B500002B080BDA40F000090B595B000AFF86062
:100B6000B9607A603823FB18224A13CA13C311688C
:100B7000196012791A711423FB182022002199544C
:100B80001F23FB641BE0FB68B968180000F01AF92A
:100B90000B001900FB6C5A1EFA643822BA18515C1B
:100BA0001422BA18D154B968F86800F025F8030087
:100BB000FB607B68002B02D07B68013B7B60FB689D
:100BC000DA17D31ADB0FDAB27B68D917CB1ADB0F2F
:100BD000DBB21343DBB2002BD5D1FB6C0133142203
:100BE000BA18D3181800FFF73BFFC046BD4615B032
:100BF00090BDC046A80F000003460B437FD40022DF
:100C000043088B4274D303098B425FD3030A8B42A0
:100C100044D3030B8B4228D3030C8B420DD3FF220A
:100C2000090212BA030C8B4202D31212090265D0D8
:100C3000030B8B4219D300E0090AC30B8B4201D38B
:100C4000CB03C01A5241830B8B4201D38B03C01AD2
:100C50005241430B8B4201D34B03C01A5241030B49
:100C60008B4201D30B03C01A5241C30A8B4201D3FA
:100C7000CB02C01A5241830A8B4201D38B02C01AA5
:100C80005241430A8B4201D34B02C01A5241030A1C
:100C90008B4201D30B02C01A5241CDD2C3098B4201
:100CA00001D3CB01C01A524183098B4201D38B017E
:100CB000C01A524143098B4201D34B01C01A524121
:100CC00003098B4201D30B01C01A5241C3088B4266
:100CD00001D3CB00C01A524183088B4201D38B0051
:100CE000C01A524143088B4201D34B00C01A5241F3
:100CF000411A00D201465241104670475DE0CA0FCA
:100D000000D04942031000D34042534000229C4689
:100D100003098B422DD3030A8B4212D3FC22890193
:100D200012BA030A8B420CD3890192118B4208D369
:100D3000890192118B4204D389013AD0921100E0CB
:100D40008909C3098B4201D3CB01C01A52418309DF
:100D50008B4201D38B01C01A524143098B4201D30C
:100D60004B01C01A524103098B4201D30B01C01A37
:100D70005241C3088B4201D3CB00C01A52418308B1
:100D80008B4201D38B00C01A5241D9D243088B4207
:100D900001D34B00C01A5241411A00D201466346AA
:100DA00052415B10104601D34042002B00D549420E
:100DB000704763465B1000D3404201B5002000F04D
:100DC00005F802BD0029F8D016E770477047C04605
:100DD000FA040000320500006A050000A6050000C4
:100DE000E20500001E060000580600001B5B324AA8
:100DF0001B5B313B314800000D0A4C504338323404
:100E0000206D756C746920492F4F206578616D7075
:100E10006C652E0D0A0000004D6561737572657377
:100E20002074686520766F6C74616765206174203A
:100E30006368616E6E656C73203320616E64203967
:100E4000202870696E73203120616E642032206F1B
:100E500066205453534F503230207061636B61678A
:100E600065290D0A000000004D6561737572657398
:100E700020706572696F64206F6E2050494F305F3B
:100E80003133202870696E2033206F66205453530D
:100E90004F503230207061636B616765290D0A0025
:100EA000546F67676C65732050494F305F332C2057
:100EB00050494F305F322C2050494F305F31312C38
:100EC0002050494F305F31302C2050494F305F3136
:100ED000352C2050494F305F312C2050494F305F26
:100EE00039202870696E7320372C20382C20392C3B
:100EF0002031302C2031312C2031322C2031332044
:100F00006F66205453534F503230207061636B61D1
:100F10006765290D0A0000005761726E696E673AB5
:100F20002050494F305F3131202870696E203929B7
:100F300020616E642050494F305F31302028706945
:100F40006E20313029206E65656420657874657285
:100F50006E616C2070756C6C2D7570207265736994
:100F600073746F727320746F20332E3356202831C0
:100F70006B207365656D7320746F20776F726B29BA
:100F80000D0A00000D4144435B335D3D30780000A5
:100F90002C200000562000004144435B395D3D3069
:100FA000780000000D0A0000303132333435363716
:090FB00038394142434445460032
:00000001FF
