:1000000000200010150100008D0100008D0100008E
:1000100000000000000000000000000000000000E0
:100020000000000000000000000000008D01000042
:1000300000000000000000008D0100008D010000A4
:100040008D0100008D0100008D010000D50C000025
:100050008D0100008D0100008D0100008D01000068
:100060008D010000450500008D0100008D0100009C
:100070008D0100008D0100008D0100008D01000048
:100080008D0100008D0100008D0100008D01000038
:100090008D0100008D0100008D0100008D01000028
:1000A0008D0100008D0100008D0100008D01000018
:1000B0008D0100008D0100008D0100008D01000008
:1000C00080B500AF0D4B1A680C4B80218A431A6033
:1000D0000B4B00221A600B4B01221A600A4B0422C0
:1000E0001A60084B01221A60084B03221A60084B61
:1000F00001221A60C046BD4680BDC0463882044019
:1001000040800440448004400880044070800440E3
:100110007480044080B584B000AFFFF7D1FF164B68
:10012000FB60164BBB60164A144BD31A7B6007E08A
:10013000FA68531CFB60BB68591CB96012781A70CE
:100140007B685A1E7A60002BF2D10E4BBB600E4AC0
:100150000C4BD31A7B6004E0BB685A1CBA600022C7
:100160001A707B685A1E7A60002BF5D100F0E4FA11
:10017000C046BD4604B080BD111200000000001052
:1001800000000010000000102400001080B500AF37
:10019000FEE7C04680B500AF284B1A68274B802188
:1001A000C9010A431A60254B1A68244B80210902B1
:1001B0000A431A60214B1A68204B02210A431A6035
:1001C0001E4B1A681D4B1E490A401A601D4B1A68C7
:1001D0001C4B10210A431A601A4B1A68194B202134
:1001E0000A431A60154B1A68144B802189000A4390
:1001F0001A60124B1A68114B802149000A431A6099
:100200000E4B1A680D4B8021C9000A431A600B4B34
:100210001A680A4B802109010A431A60074B1A68C1
:10022000064B04210A431A60044B1A68034B082149
:100230000A431A60C046BD4680BDC046002000A0EB
:10024000FFDFFFFFC0C1004080B500AF2B4B1A6835
:100250002A4B04210A431A60294B1A68284B1202C0
:10026000120A1A60264B1A68254BE02109050A4339
:100270001A60244B1A68234B802149000A431A60F4
:10028000214B1A68204B802149000A431A601F4BFA
:100290001A681E4B01210A431A601D4B1D4A1A6041
:1002A0001D4B1C4A1A601D4B01221A601C4BD022A8
:1002B00012021A601B4B02221A601B4BA022D201B1
:1002C0001A601A4B01221A60194B02221A60194B4C
:1002D00003221A80094B1A68084B04218A431A60CA
:1002E000154B01221A60154B1A68144B80218900A6
:1002F0000A431A60C046BD4680BDC0460440005057
:100300001CC0004080800440048004400040005035
:1003100000410050EE030000004200500043005036
:1003200004430050084300500C4300500045005067
:100330000445005008400050F040005000E100E04B
:1003400080B582B000AF78600C4B1A680B4B04216B
:100350000A431A600A4B7A681A600A4B7A681A6074
:10036000094B00221A60054B1A68044B04218A438A
:100370001A60C046BD4602B080BDC0460440005071
:1003800000410050004200504040005080B500AF96
:100390000A4B0B4A1A600B4B00221A600A4B0522CB
:1003A0001A60C046084B1A6880235B021340F9D0DC
:1003B000054B00221A60C046BD4680BD14E000E037
:1003C0002F75000018E000E010E000E080B582B07A
:1003D00000AF786001E0FFF7D9FF7B685A1E7A60B2
:1003E000002BF8D1C046C046BD4602B080BD80B5E6
:1003F00082B000AF094B1B687B60084B084A1A604B
:10040000C046064B1A688023DB051340F9D1034B25
:100410007A681A60C046BD4602B080BD00C0014087
:100420003B00004080B500AF134B1A68124B1021FF
:100430008A431A60114B1A68104B802149040A4301
:100440001A60FFF7D4FF0E4B1A680D4B520052088A
:100450001A600C4B01221A600B4B1A680A4B0B49AD
:100460000A401A60084B1A68074B09490A401A608B
:10047000C046BD4680BDC0463882044080800440EE
:1004800008C0014000C00140C0C10040FFFFFEFFA6
:10049000FFFFBFFF80B582B000AF7860184B1A68CD
:1004A000174B520052081A60154B1A68144B120B66
:1004B00012031A60124B1A6801217B6899400B00E5
:1004C00019000F4B0A431A600D4B1A680C4B0D496B
:1004D0000A431A600A4B1A68094B8021C9040A436F
:1004E0001A60C046084B1B68002BFBDA064B1B68E2
:1004F0001B091B051B0D1800BD4602B080BDC04680
:1005000008C001400000048010C0014080B584B0E4
:1005100000AF78607B681800FFF7BCFF0300FB604A
:10052000FB68064A53430649180000F033FD0300F8
:10053000BB60BB681800BD4604B080BDE880000009
:10054000FF0F000080B500AF744B01221A60744B9E
:100550001B68062B00D9C7E09A00724BD3181B68A2
:100560009F46714B1B68632B10D8704B1B78DBB216
:100570005A425341DAB26D4B1A706C4B1B78DBB2A6
:100580005A425341DAB26A4B1A70B6E0674B002206
:100590001A70674B00221A70AFE0634B1B68C72BC1
:1005A00010D8624B1B78DBB25A425341DAB25F4B30
:1005B0001A705E4B1B78DBB25A425341DAB25C4B85
:1005C0001A709AE0594B00221A70594B00221A7087
:1005D00093E0554B1A6896235B009A4210D2534B16
:1005E0001B78DBB25A425341DAB2504B1A704F4B70
:1005F0001B78DBB25A425341DAB24D4B1A707CE0A1
:100600004A4B00221A704A4B00221A7075E0464B82
:100610001A68C8235B009A4210D2444B1B78DBB2A5
:100620005A425341DAB2414B1A70404B1B78DBB24D
:100630005A425341DAB23E4B1A705EE03B4B002205
:100640001A703B4B00221A7057E0374B1A68FA2396
:100650005B009A4210D2354B1B78DBB25A425341B1
:10066000DAB2324B1A70314B1B78DBB25A4253412B
:10067000DAB22F4B1A7040E02C4B00221A702C4B30
:1006800000221A7039E0284B1B682A4A934210D87E
:10069000264B1B78DBB25A425341DAB2234B1A7015
:1006A000224B1B78DBB25A425341DAB2204B1A700C
:1006B00023E01E4B00221A701D4B00221A701CE012
:1006C0001A4B1B78DBB25A425341DAB2174B1A70FD
:1006D000164B1B78DBB25A425341DAB2144B1A70F4
:1006E000114B00221A6008E0104B00221A700F4BC9
:1006F00000221A700C4B00221A600B4B1B685A1C0C
:10070000094B1A60084B1A68C8239B009A4202D111
:10071000054B00221A60C046BD4680BDF440005023
:10072000040000106C110000000000100F0000A079
:10073000010000A08902000080B582B000AFFFF781
:1007400029FDFFF781FDE1235B02180000F04AFA62
:10075000FFF768FE00F0E6F962B65D4B0122012169
:10076000180000F001FAFA235B001800FFF72EFED4
:10077000584B180000F042FB574B1B68062B17D153
:10078000564B1B78DBB2002BF6D1534B00221A607C
:100790004F4B01220121180000F0E6F9C0464F4BF3
:1007A0001B78DBB2002BFAD06420FFF70FFEE3E7E3
:1007B000494B1B68002B08D0474B00221A60444B62
:1007C00001220121180000F0CFF90920FFF79EFE59
:1007D00003007B600320FFF799FE03003B603B684A
:1007E0003F4A934212DC3C4B01221A603D4B0122EE
:1007F0000121180000F0B8F904E00320FFF786FE9D
:1008000003003B603B68364A9342F6DD3B68364A5C
:10081000934212DD304B02221A60344B0122012137
:10082000180000F0A1F904E00320FFF76FFE0300B9
:100830003B603B682C4A9342F6DC7B682A4A934231
:1008400012DD254B03221A60294B012201211800D9
:1008500000F08AF904E00920FFF758FE03007B60EE
:100860007B68214A9342F6DC7B681D4A934212DC86
:10087000194B04221A601F4B01220121180000F0BD
:1008800073F904E00920FFF741FE03007B607B68F9
:10089000134A9342F6DD114B1B78DBB2002B00D0DC
:1008A0006AE70D4B05221A60134B01220121180043
:1008B00000F05AF9C046094B1B78DBB2002BFAD086
:1008C000054B06221A606420FFF780FD54E7C046FE
:1008D0008811000090110000040000100D0000A01D
:1008E000B70B0000CC11000030750000D4110000DF
:1008F000DC110000E4110000F011000080B582B0AE
:1009000000AF0200FB1D1A70FB1D1B781900104878
:1009100000F040FB030019000E4800F03BFB030011
:100920005A1E0D4B1A600D4B00221A600C4B05220B
:100930001A60C0460A4B1A6880235B021340F9D044
:10094000074B00221A60C046BD4602B080BDC046BB
:1009500040420F0080C3C90114E000E018E000E04D
:1009600010E000E080B584B000AF78600023FB6049
:1009700015E00B23FB1800221A7008E0FA20FFF79D
:10098000BDFF0B217B181A787B1801321A700B23DC
:10099000FB181B78032BF1D9FB680133FB60FA6865
:1009A0007B689A42E5D3C046C046BD4604B080BDD0
:1009B00080B500AF054B01221A702820FFF79EFF7B
:1009C000024B00221A70C046BD4680BD080000A040
:1009D00080B582B000AF0200FB1D1A70FB1D1B78B2
:1009E0005BB2002B03DA334B01221A7002E0314B69
:1009F00000221A70FB1D1B784022134003D02E4B9F
:100A000001221A7002E02C4B00221A70FB1D1B7889
:100A10002022134003D0294B01221A7002E0274BF9
:100A200000221A70FB1D1B781022134003D0244BA8
:100A300001221A7002E0224B00221A70FFF7B8FF61
:100A40002820FFF75BFFFB1D1B780822134003D013
:100A5000184B01221A7002E0164B00221A70FB1D7F
:100A60001B780422134003D0134B01221A7002E0BA
:100A7000114B00221A70FB1D1B780222134003D079
:100A80000E4B01221A7002E00C4B00221A70FB1D63
:100A90001B780122134003D0094B01221A7002E097
:100AA000074B00221A70FFF783FFC046BD4602B015
:100AB00080BDC046030000A0020000A00B0000A003
:100AC0000A0000A080B582B000AF0200FB1D1A70C2
:100AD000074B01221A70FB1D1B781800FFF778FFE7
:100AE0000220FFF73FFFC046BD4602B080BDC046B2
:100AF000090000A080B582B000AF0200FB1D1A7093
:100B0000074B00221A70FB1D1B781800FFF760FFCF
:100B10000520FFF727FFC046BD4602B080BDC04696
:100B2000090000A080B500AF0E4B00221A701420FF
:100B3000FFF718FF3320FFF7DDFF3320FFF7DAFF61
:100B40003220FFF7D7FF2820FFF7D4FF0C20FFF754
:100B5000D1FF0120FFF7CEFF1420FFF703FFC046AF
:100B6000BD4680BD080000A080B584B000AF7860AD
:100B700008001100FB1C021C1A70BB1C0A1C1A7016
:100B8000FB1C1B78022B01D1C02300E0802318003E
:100B9000FFF7B0FF0520FFF7E5FE0023FB6009E04B
:100BA000FB687A68D3181B781800FFF78BFFFB6887
:100BB0000133FB60FB687A68D3181B78002BEFD1F8
:100BC000BB1C1B78002B09D005E02020FFF77AFF23
:100BD000FB680133FB60FB680F2BF6DDC046BD46AA
:100BE00004B080BD80B582B000AF78602B4B1A682E
:100BF0002A4B08218A431A60294B1A68284B802106
:100C0000C9010A431A60254B1A68244B08210A437C
:100C10001A60244B1A68234B08210A431A60224B9E
:100C20001A68214B01210A431A60204B1A681F4B96
:100C3000FF218A431A601D4B1A681C4B04210A438A
:100C40001A601A4B1A68194B19490A401A60174A58
:100C5000164B12681A60174B01221A60164B0022BD
:100C60001A60164B00221A607B681B011900144899
:100C700000F090F903001A00124B1A60124B012287
:100C80001A60124B00221A60114B1A68104B052192
:100C90000A431A60C046BD4602B080BD04800440CD
:100CA0008080044000E100E0C0C1004000C000407E
:100CB000FF00FFFF94800440F0800440F480044073
:100CC00000879303204006400C4006400440064045
:100CD0000040064080B582B000AF094B1B687B60C6
:100CE0007B680122134007D0064B1B68DAB2064B23
:100CF0001100180000F00AF8C046BD4602B080BDE1
:100D000024400640144006400800001080B582B020
:100D100000AF78600A00FB1C1A707B689B680F2B81
:100D200014D872B67B689B685A1C7B689A607B6893
:100D30001B687A68D318FA1C12781A737B681B68D0
:100D400001330F221A407B681A6062B6C046BD4666
:100D500002B080BD80B584B000AF78600F217B18F1
:100D600000221A707B689B68002B14D072B67B68D7
:100D70009B685A1E7B689A607B685A687B18796802
:100D80008A18127B1A707B685B6801330F221A4045
:100D90007B685A6062B60F23FB181B781800BD46AB
:100DA00004B080BD80B500AF024B9B681800BD4603
:100DB00080BDC0460800001080B584B000AF0200BE
:100DC000FB1D1A700A4BFB60C046FB685A1EFA6096
:100DD000002B04D0074B1B6804221340F5D0064BB0
:100DE000FA1D12781A60C046BD4604B080BDC046E8
:100DF000FFFF0000084006401C40064080B582B05E
:100E000000AF786007E07B681B781800FFF7D4FF1D
:100E10007B6801337B607B681B78002BF3D1C04675
:100E2000C046BD4602B080BD80B500AF034B180080
:100E3000FFF790FF03001800BD4680BD08000010BA
:100E4000B0B584B000AF786039600023FB600B233D
:100E5000FB1800221A7020E00B257C19FFF7E4FF35
:100E6000030023707B191B78002BF5D07B191B78AE
:100E70001800FFF7A1FF29007B181B780A2B0CD064
:100E80007B181B780D2B08D0FB685A1CFA601A00DF
:100E90007B689B187A1812781A703B68013BFA68D5
:100EA0009A4208DA0B22BB181B780A2B03D0BB1816
:100EB0001B780D2BD0D1FB68002B04DDFB687A6812
:100EC000D31800221A70FB681800BD4604B0B0BDEC
:100ED00080B582B000AF78607B681800FFF78EFFA6
:100EE000034B1800FFF78AFFC046BD4602B080BD25
:100EF000FC11000090B595B000AFF860B9607A6061
:100F00003823FB18224A13CA13C3116819601279D7
:100F10001A711423FB182022002199541F23FB640B
:100F20001BE0FB68B968180000F01AF90B00190003
:100F3000FB6C5A1EFA643822BA18515C1422BA1893
:100F4000D154B968F86800F025F80300FB607B68AD
:100F5000002B02D07B68013B7B60FB68DA17D31A59
:100F6000DB0FDAB27B68D917CB1ADB0FDBB2134386
:100F7000DBB2002BD5D1FB6C01331422BA18D31885
:100F80001800FFF73BFFC046BD4615B090BDC046F8
:100F90000012000003460B437FD4002243088B421B
:100FA00074D303098B425FD3030A8B4244D3030BF0
:100FB0008B4228D3030C8B420DD3FF22090212BAB5
:100FC000030C8B4202D31212090265D0030B8B4231
:100FD00019D300E0090AC30B8B4201D3CB03C01A1B
:100FE0005241830B8B4201D38B03C01A5241430BF6
:100FF0008B4201D34B03C01A5241030B8B4201D3E6
:101000000B03C01A5241C30A8B4201D3CB02C01A50
:101010005241830A8B4201D38B02C01A5241430AC8
:101020008B4201D34B02C01A5241030A8B4201D3B7
:101030000B02C01A5241CDD2C3098B4201D3CB015E
:10104000C01A524183098B4201D38B01C01A52410D
:1010500043098B4201D34B01C01A524103098B4211
:1010600001D30B01C01A5241C3088B4201D3CB00FC
:10107000C01A524183088B4201D38B00C01A5241DF
:1010800043088B4201D34B00C01A5241411A00D28F
:1010900001465241104670475DE0CA0F00D04942F8
:1010A000031000D34042534000229C4603098B4268
:1010B0002DD3030A8B4212D3FC22890112BA030AF0
:1010C0008B420CD3890192118B4208D38901921172
:1010D0008B4204D389013AD0921100E08909C309F7
:1010E0008B4201D3CB01C01A524183098B4201D3F9
:1010F0008B01C01A524143098B4201D34B01C01AE4
:10110000524103098B4201D30B01C01A5241C3085B
:101110008B4201D3CB00C01A524183088B4201D3CA
:101120008B00C01A5241D9D243088B4201D34B00E5
:10113000C01A5241411A00D20146634652415B1027
:10114000104601D34042002B00D549427047634608
:101150005B1000D3404201B5002000F005F802BD4D
:0C1160000029F8D016E770477047C04621
:10116C00620500009A050000D20500000E06000082
:10117C004A06000086060000C006000053544F507B
:10118C00000000004672657175656E6379206765B5
:10119C006E657261746F72207573696E67204C5046
:1011AC00433832342E20204F757470757420697357
:1011BC0020696E2070696E2031312E0D0A000000FE
:1011CC004C4546540000000052494748540000006A
:1011DC00464F5257415244004241434B57415244AF
:1011EC0000000000545241434B494E4700000000A0
:1011FC000D0A00003031323334353637383941423C
:05120C004344454600CB
:00000001FF
