:1000000000200010150100008D0100008D0100008E
:1000100000000000000000000000000000000000E0
:100020000000000000000000000000008D01000042
:1000300000000000000000008D0100008D010000A4
:100040008D0100008D0100008D010000C50700003A
:100050008D0100008D0100008D0100008D01000068
:100060008D010000BF0300008D0100008D01000024
:100070008D0100008D0100008D0100008D01000048
:100080008D0100008D0100008D0100008D01000038
:100090008D0100008D0100008D0100008D01000028
:1000A0008D0100008D0100008D0100008D01000018
:1000B0008D0100008D0100008D0100008D01000008
:1000C00080B500AF0D4B1A680C4B80218A431A6033
:1000D0000B4B00221A600B4B01221A600A4B0422C0
:1000E0001A60084B01221A60084B03221A60084B61
:1000F00001221A60C046BD4680BDC0463882044019
:1001000040800440448004400880044070800440E3
:100110007480044080B584B000AFFFF7D1FF164B68
:10012000FB60164BBB60164A144BD31A7B6007E08A
:10013000FA68531CFB60BB68591CB96012781A70CE
:100140007B685A1E7A60002BF2D10E4BBB600E4AC0
:100150000C4BD31A7B6004E0BB685A1CBA600022C7
:100160001A707B685A1E7A60002BF5D100F046FAAF
:10017000C046BD4604B080BDC90C000000000010A0
:1001800000000010000000102400001080B500AF37
:10019000FEE7C04680B500AF1A4B1A68194B8021A4
:1001A000C9010A431A60174B1A68164B80210902CD
:1001B0000A431A60134B1A68124B02210A431A6051
:1001C000104B1A680F4B10490A401A600D4B1A6801
:1001D0000C4B0E490A401A600A4B1A68094B0C492D
:1001E0000A401A60074B1A68064B0A490A401A600F
:1001F000044B1A68034B04218A431A60C046BD466B
:1002000080BDC046002000A0FFFF7FFFFFDFFFFF93
:10021000FFFEFFFFFFFDFFFF80B500AF2B4B1A680D
:100220002A4B04210A431A60294B1A68284B1202F0
:10023000120A1A60264B1A68254BE02109050A4369
:100240001A60244B1A68234B802149000A431A6024
:10025000214B1A68204B802149000A431A601F4B2A
:100260001A681E4B01210A431A601D4B1D4A1A6071
:100270001D4B1C4A1A601D4B01221A601C4BD022D8
:1002800012021A601B4B02221A601B4BA022D201E1
:100290001A601A4B01221A60194B02221A60194B7C
:1002A00003221A80094B1A68084B04218A431A60FA
:1002B000154B01221A60154B1A68144B80218900D6
:1002C0000A431A60C046BD4680BDC0460440005087
:1002D0001CC0004080800440048004400040005066
:1002E00000410050EE030000004200500043005067
:1002F00004430050084300500C4300500045005098
:100300000445005008400050F040005000E100E07B
:1003100080B582B000AF78600C4B1A680B4B04219B
:100320000A431A600A4B7A681A600A4B7A681A60A4
:10033000094B00221A60054B1A68044B04218A43BA
:100340001A60C046BD4602B080BDC04604400050A1
:1003500000410050004200504040005080B500AFC6
:100360000A4B0B4A1A600B4B00221A600A4B0522FB
:100370001A60C046084B1A6880235B021340F9D00C
:10038000054B00221A60C046BD4680BD14E000E067
:100390002F75000018E000E010E000E080B582B0AA
:1003A00000AF786001E0FFF7D9FF7B685A1E7A60E2
:1003B000002BF8D1C046C046BD4602B080BD80B516
:1003C00000AF754B01221A60744B1B68062B00D9D5
:1003D000C7E09A00724BD3181B689F46714B1B688D
:1003E000632B10D8704B1B78DBB25A425341DAB200
:1003F0006D4B1A706C4B1B78DBB25A425341DAB228
:100400006A4B1A70B6E0684B00221A70674B0022E4
:100410001A70AFE0634B1B68C72B10D8624B1B7878
:10042000DBB25A425341DAB25F4B1A705E4B1B7813
:10043000DBB25A425341DAB25C4B1A709AE05A4B23
:1004400000221A70594B00221A7093E0554B1A681B
:1004500096235B009A4210D2534B1B78DBB25A4270
:100460005341DAB2504B1A704F4B1B78DBB25A42F1
:100470005341DAB24D4B1A707CE04B4B00221A709C
:100480004A4B00221A7075E0464B1A68C8235B007D
:100490009A4210D2444B1B78DBB25A425341DAB233
:1004A000414B1A70404B1B78DBB25A425341DAB2CF
:1004B0003E4B1A705EE03C4B00221A703B4B002210
:1004C0001A7057E0374B1A68FA235B009A4210D231
:1004D000354B1B78DBB25A425341DAB2324B1A70B9
:1004E000314B1B78DBB25A425341DAB22F4B1A70B0
:1004F00040E02D4B00221A702C4B00221A7039E07C
:10050000284B1B682A4A934210D8274B1B78DBB232
:100510005A425341DAB2244B1A70234B1B78DBB298
:100520005A425341DAB2214B1A7023E01E4B00228B
:100530001A701E4B00221A701CE01B4B1B78DBB29A
:100540005A425341DAB2184B1A70174B1B78DBB280
:100550005A425341DAB2154B1A70124B00221A60FC
:1005600008E0114B00221A700F4B00221A700D4B3D
:1005700000221A600B4B1B685A1C0A4B1A60094B6D
:100580001A68C8239B009A4202D1064B00221A60C7
:10059000C046BD4680BDC046F44000500400001077
:1005A0005C0C0000000000100F0000A0010000A083
:1005B0008902000080B584B000AF78600023BB6082
:1005C0000023FB600FE0BA6813009B009B185B00E0
:1005D0001900FB687A68D3181B78303BCB18BB60D6
:1005E000FB680133FB60FB687A68D3181B78002B2B
:1005F000E9D1BB681800BD4604B080BD80B59AB093
:1006000000AFFFF7C7FDFFF707FEE1235B0218000D
:1006100000F060F862B6FA235B001800FFF7BEFE38
:10062000254B180000F062F9244B1B68062B09D1FA
:1006300002E0224B00221A60214B1B78DBB2002B18
:10064000F7D0F1E71D4B00221A6002E01B4B01229C
:100650001A601C4B1B78DBB2002BF7D002E0174B63
:1006600002221A60184B1B78DBB2002BF7D002E095
:10067000124B03221A60154B1B78DBB2002BF7D00C
:1006800002E00E4B04221A60114B1B78DBB2002BE8
:10069000F7D00B4B1B78DBB2002BC5D102E0074B28
:1006A00005221A60064B1B78DBB2002BF7D0034BF8
:1006B00006221A60B8E7C046780C0000040000105B
:1006C000020000A0170000A00D0000A0080000A07C
:1006D000090000A080B582B000AF78602B4B1A688B
:1006E0002A4B08218A431A60294B1A68284B80211B
:1006F000C9010A431A60254B1A68244B08210A4392
:100700001A60244B1A68234B08210A431A60224BB3
:100710001A68214B01210A431A60204B1A681F4BAB
:10072000FF218A431A601D4B1A681C4B04210A439F
:100730001A601A4B1A68194B19490A401A60174A6D
:10074000164B12681A60174B01221A60164B0022D2
:100750001A60164B00221A607B681B0119001448AE
:1007600000F090F903001A00124B1A60124B01229C
:100770001A60124B00221A60114B1A68104B0521A7
:100780000A431A60C046BD4602B080BD04800440E2
:100790008080044000E100E0C0C1004000C0004093
:1007A000FF00FFFF94800440F0800440F480044088
:1007B00000879303204006400C400640044006405A
:1007C0000040064080B582B000AF094B1B687B60DB
:1007D0007B680122134007D0064B1B68DAB2064B38
:1007E0001100180000F00AF8C046BD4602B080BDF6
:1007F00024400640144006400800001080B582B036
:1008000000AF78600A00FB1C1A707B689B680F2B96
:1008100014D872B67B689B685A1C7B689A607B68A8
:100820001B687A68D318FA1C12781A737B681B68E5
:1008300001330F221A407B681A6062B6C046BD467B
:1008400002B080BD80B584B000AF78600F217B1806
:1008500000221A707B689B68002B14D072B67B68EC
:100860009B685A1E7B689A607B685A687B18796817
:100870008A18127B1A707B685B6801330F221A405A
:100880007B685A6062B60F23FB181B781800BD46C0
:1008900004B080BD80B500AF024B9B681800BD4618
:1008A00080BDC0460800001080B584B000AF0200D3
:1008B000FB1D1A700A4BFB60C046FB685A1EFA60AB
:1008C000002B04D0074B1B6804221340F5D0064BC5
:1008D000FA1D12781A60C046BD4604B080BDC046FD
:1008E000FFFF0000084006401C40064080B582B073
:1008F00000AF786007E07B681B781800FFF7D4FF33
:100900007B6801337B607B681B78002BF3D1C0468A
:10091000C046BD4602B080BD80B500AF034B180095
:10092000FFF790FF03001800BD4680BD08000010CF
:10093000B0B584B000AF786039600023FB600B2352
:10094000FB1800221A7020E00B257C19FFF7E4FF4A
:10095000030023707B191B78002BF5D07B191B78C3
:100960001800FFF7A1FF29007B181B780A2B0CD079
:100970007B181B780D2B08D0FB685A1CFA601A00F4
:100980007B689B187A1812781A703B68013BFA68EA
:100990009A4208DA0B22BB181B780A2B03D0BB182B
:1009A0001B780D2BD0D1FB68002B04DDFB687A6827
:1009B000D31800221A70FB681800BD4604B0B0BD01
:1009C00080B582B000AF78607B681800FFF78EFFBB
:1009D000034B1800FFF78AFFC046BD4602B080BD3A
:1009E000B40C000090B595B000AFF860B9607A60C3
:1009F0003823FB18224A13CA13C3116819601279ED
:100A00001A711423FB182022002199541F23FB6420
:100A10001BE0FB68B968180000F01AF90B00190018
:100A2000FB6C5A1EFA643822BA18515C1422BA18A8
:100A3000D154B968F86800F025F80300FB607B68C2
:100A4000002B02D07B68013B7B60FB68DA17D31A6E
:100A5000DB0FDAB27B68D917CB1ADB0FDBB213439B
:100A6000DBB2002BD5D1FB6C01331422BA18D3189A
:100A70001800FFF73BFFC046BD4615B090BDC0460D
:100A8000B80C000003460B437FD4002243088B427E
:100A900074D303098B425FD3030A8B4244D3030B05
:100AA0008B4228D3030C8B420DD3FF22090212BACA
:100AB000030C8B4202D31212090265D0030B8B4246
:100AC00019D300E0090AC30B8B4201D3CB03C01A30
:100AD0005241830B8B4201D38B03C01A5241430B0B
:100AE0008B4201D34B03C01A5241030B8B4201D3FB
:100AF0000B03C01A5241C30A8B4201D3CB02C01A66
:100B00005241830A8B4201D38B02C01A5241430ADD
:100B10008B4201D34B02C01A5241030A8B4201D3CC
:100B20000B02C01A5241CDD2C3098B4201D3CB0173
:100B3000C01A524183098B4201D38B01C01A524122
:100B400043098B4201D34B01C01A524103098B4226
:100B500001D30B01C01A5241C3088B4201D3CB0011
:100B6000C01A524183088B4201D38B00C01A5241F4
:100B700043088B4201D34B00C01A5241411A00D2A4
:100B800001465241104670475DE0CA0F00D049420D
:100B9000031000D34042534000229C4603098B427D
:100BA0002DD3030A8B4212D3FC22890112BA030A05
:100BB0008B420CD3890192118B4208D38901921187
:100BC0008B4204D389013AD0921100E08909C3090C
:100BD0008B4201D3CB01C01A524183098B4201D30E
:100BE0008B01C01A524143098B4201D34B01C01AF9
:100BF000524103098B4201D30B01C01A5241C30871
:100C00008B4201D3CB00C01A524183088B4201D3DF
:100C10008B00C01A5241D9D243088B4201D34B00FA
:100C2000C01A5241411A00D20146634652415B103C
:100C3000104601D34042002B00D54942704763461D
:100C40005B1000D3404201B5002000F005F802BD62
:0C0C50000029F8D016E770477047C04636
:100C5C00DC030000140400004C04000088040000B5
:100C6C00C4040000000500003A05000046726571DE
:100C7C0075656E63792067656E657261746F72203D
:100C8C007573696E67204C50433832342E20204FD8
:100C9C00757470757420697320696E2070696E208C
:100CAC0031312E0D0A0000000D0A000030313233B4
:0D0CBC00343536373839414243444546004F
:00000001FF
